{
  "_format": "hh-sol-artifact-1",
  "contractName": "FreeWorkEscrow",
  "sourceName": "contracts/FreeWorkEscrow.sol",
  "abi": [
    {
      "inputs": [
        {
          "internalType": "address",
          "name": "_freelancer",
          "type": "address"
        }
      ],
      "stateMutability": "payable",
      "type": "constructor"
    },
    {
      "inputs": [],
      "name": "employer",
      "outputs": [
        {
          "internalType": "address",
          "name": "",
          "type": "address"
        }
      ],
      "stateMutability": "view",
      "type": "function"
    },
    {
      "inputs": [],
      "name": "freelancer",
      "outputs": [
        {
          "internalType": "address",
          "name": "",
          "type": "address"
        }
      ],
      "stateMutability": "view",
      "type": "function"
    },
    {
      "inputs": [],
      "name": "fundsReleased",
      "outputs": [
        {
          "internalType": "bool",
          "name": "",
          "type": "bool"
        }
      ],
      "stateMutability": "view",
      "type": "function"
    },
    {
      "inputs": [],
      "name": "markTaskCompleted",
      "outputs": [],
      "stateMutability": "nonpayable",
      "type": "function"
    },
    {
      "inputs": [],
      "name": "refundEmployer",
      "outputs": [],
      "stateMutability": "nonpayable",
      "type": "function"
    },
    {
      "inputs": [],
      "name": "releasePayment",
      "outputs": [],
      "stateMutability": "nonpayable",
      "type": "function"
    },
    {
      "inputs": [],
      "name": "taskAmount",
      "outputs": [
        {
          "internalType": "uint256",
          "name": "",
          "type": "uint256"
        }
      ],
      "stateMutability": "view",
      "type": "function"
    },
    {
      "inputs": [],
      "name": "taskCompleted",
      "outputs": [
        {
          "internalType": "bool",
          "name": "",
          "type": "bool"
        }
      ],
      "stateMutability": "view",
      "type": "function"
    }
  ],
  "bytecode": "0x6080604052604051610b7c380380610b7c833981810160405281019061002591906100fe565b336000806101000a81548173ffffffffffffffffffffffffffffffffffffffff021916908373ffffffffffffffffffffffffffffffffffffffff16021790555080600160006101000a81548173ffffffffffffffffffffffffffffffffffffffff021916908373ffffffffffffffffffffffffffffffffffffffff160217905550346002819055506000600360006101000a81548160ff0219169083151502179055506000600360016101000a81548160ff02191690831515021790555050610170565b6000815190506100f881610159565b92915050565b60006020828403121561011057600080fd5b600061011e848285016100e9565b91505092915050565b600061013282610139565b9050919050565b600073ffffffffffffffffffffffffffffffffffffffff82169050919050565b61016281610127565b811461016d57600080fd5b50565b6109fd8061017f6000396000f3fe608060405234801561001057600080fd5b50600436106100875760003560e01c8063b564e9261161005b578063b564e926146100dc578063c326b0d0146100fa578063d116c8c414610118578063f7317f001461012257610087565b80625fe9481461008c578063a37dda2c14610096578063ae200e79146100b4578063b4aa5e49146100d2575b600080fd5b610094610140565b005b61009e6101ed565b6040516100ab919061085d565b60405180910390f35b6100bc610213565b6040516100c9919061085d565b60405180910390f35b6100da610237565b005b6100e46103eb565b6040516100f19190610878565b60405180910390f35b6101026103fe565b60405161010f9190610953565b60405180910390f35b610120610404565b005b61012a6105b9565b6040516101379190610878565b60405180910390f35b600160009054906101000a900473ffffffffffffffffffffffffffffffffffffffff1673ffffffffffffffffffffffffffffffffffffffff163373ffffffffffffffffffffffffffffffffffffffff16146101d0576040517f08c379a00000000000000000000000000000000000000000000000000000000081526004016101c790610933565b60405180910390fd5b6001600360006101000a81548160ff021916908315150217905550565b600160009054906101000a900473ffffffffffffffffffffffffffffffffffffffff1681565b60008054906101000a900473ffffffffffffffffffffffffffffffffffffffff1681565b60008054906101000a900473ffffffffffffffffffffffffffffffffffffffff1673ffffffffffffffffffffffffffffffffffffffff163373ffffffffffffffffffffffffffffffffffffffff16146102c5576040517f08c379a00000000000000000000000000000000000000000000000000000000081526004016102bc906108b3565b60405180910390fd5b600360009054906101000a900460ff1615610315576040517f08c379a000000000000000000000000000000000000000000000000000000000815260040161030c906108d3565b60405180910390fd5b600360019054906101000a900460ff1615610365576040517f08c379a000000000000000000000000000000000000000000000000000000000815260040161035c90610893565b60405180910390fd5b6001600360016101000a81548160ff02191690831515021790555060008054906101000a900473ffffffffffffffffffffffffffffffffffffffff1673ffffffffffffffffffffffffffffffffffffffff166108fc6002549081150290604051600060405180830381858888f193505050501580156103e8573d6000803e3d6000fd5b50565b600360019054906101000a900460ff1681565b60025481565b60008054906101000a900473ffffffffffffffffffffffffffffffffffffffff1673ffffffffffffffffffffffffffffffffffffffff163373ffffffffffffffffffffffffffffffffffffffff1614610492576040517f08c379a000000000000000000000000000000000000000000000000000000000815260040161048990610913565b60405180910390fd5b600360009054906101000a900460ff166104e1576040517f08c379a00000000000000000000000000000000000000000000000000000000081526004016104d8906108f3565b60405180910390fd5b600360019054906101000a900460ff1615610531576040517f08c379a000000000000000000000000000000000000000000000000000000000815260040161052890610893565b60405180910390fd5b6001600360016101000a81548160ff021916908315150217905550600160009054906101000a900473ffffffffffffffffffffffffffffffffffffffff1673ffffffffffffffffffffffffffffffffffffffff166108fc6002549081150290604051600060405180830381858888f193505050501580156105b6573d6000803e3d6000fd5b50565b600360009054906101000a900460ff1681565b6105d58161097f565b82525050565b6105e481610991565b82525050565b60006105f760218361096e565b91507f46756e6473206861766520616c7265616479206265656e2072656c656173656460008301527f2e000000000000000000000000000000000000000000000000000000000000006020830152604082019050919050565b600061065d60278361096e565b91507f4f6e6c792074686520656d706c6f7965722063616e207265717565737420612060008301527f726566756e642e000000000000000000000000000000000000000000000000006020830152604082019050919050565b60006106c360248361096e565b91507f43616e6e6f7420726566756e64206166746572207461736b20636f6d706c657460008301527f696f6e2e000000000000000000000000000000000000000000000000000000006020830152604082019050919050565b600061072960388361096e565b91507f5461736b206d757374206265206d61726b656420617320636f6d706c6574656460008301527f206265666f72652072656c656173696e672066756e64732e00000000000000006020830152604082019050919050565b600061078f60268361096e565b91507f4f6e6c792074686520656d706c6f7965722063616e2072656c6561736520706160008301527f796d656e742e00000000000000000000000000000000000000000000000000006020830152604082019050919050565b60006107f560338361096e565b91507f4f6e6c792074686520667265656c616e6365722063616e206d61726b2074686560008301527f207461736b20617320636f6d706c657465642e000000000000000000000000006020830152604082019050919050565b610857816109bd565b82525050565b600060208201905061087260008301846105cc565b92915050565b600060208201905061088d60008301846105db565b92915050565b600060208201905081810360008301526108ac816105ea565b9050919050565b600060208201905081810360008301526108cc81610650565b9050919050565b600060208201905081810360008301526108ec816106b6565b9050919050565b6000602082019050818103600083015261090c8161071c565b9050919050565b6000602082019050818103600083015261092c81610782565b9050919050565b6000602082019050818103600083015261094c816107e8565b9050919050565b6000602082019050610968600083018461084e565b92915050565b600082825260208201905092915050565b600061098a8261099d565b9050919050565b60008115159050919050565b600073ffffffffffffffffffffffffffffffffffffffff82169050919050565b600081905091905056fea2646970667358221220c2396c086c44ec5b87aac92fcfc1624d5d8fcec3688e0382ab66db85c59c546d64736f6c63430008000033",
  "linkReferences": {},
  "deployedLinkReferences": {}
}